:020000040800F2
:1000000000000220F91E0008751C00087B1C000877
:10001000811C0008871C00088D1C000800000000DF
:10002000000000000000000000000000931C000819
:10003000A11C000800000000AF1C0008BD1C000847
:10004000491F0008491F0008491F0008491F0008F0
:10005000491F0008491F0008491F0008C91C000863
:10006000491F0008491F0008D71C0008491F000845
:10007000491F0008491F0008491F0008491F0008C0
:10008000491F0008491F0008491F0008491F0008B0
:10009000ED1C0008491F0008491F0008011D000849
:1000A000491F0008491F0008491F0008491F000890
:1000B000491F0008491F0008491F0008491F000880
:1000C000491F0008491F0008491F0008491F000870
:1000D000491F0008491F0008491F0008491F000860
:1000E0001D1D0008491F0008491F0008491F00087E
:1000F000491F0008491F0008491F0008491F000840
:10010000491F0008491F0008491F0008491F00082F
:10011000491F0008491F0008491F0008491F00081F
:10012000491F0008491F0008491F0008491F00080F
:10013000491F00080000000000000000491F0008DF
:10014000491F0008351D0008491F0008491F000805
:10015000491F0008491F0008491F0008491F0008DF
:10016000491F0008491F0008491F0008491F0008CF
:10017000491F0008491F000800000000000000009F
:08018000491F0008491F000897
:1001900010B5054C237833B9044B13B10448AFF3C1
:1001A00000800123237010BD7000002000000000BB
:1001B000405E000808B5034B1BB103490348AFF389
:1001C000008008BD0000000074000020405E0008B0
:1001D00001F0FF01102A2BDB10F0070F08D010F8F8
:1001E000013B013A8B422DD010F0070F42B3F6D1FC
:1001F000F0B441EA012141EA014122F007047FF015
:1002000000070023F0E80256083C85EA010586EA6B
:10021000010685FA47F5A3FA87F586FA47F6A5FAA7
:1002200087F68EB9EED1F0BC01F0FF0102F00702B3
:1002300032B110F8013B013A83EA010313B1F8D15E
:100240000020704701387047002D06BF354603383F
:10025000073815F0010F07D1013015F4807F02BF78
:10026000013015F4C03F0130F0BC0138704700BFC9
:1002700053B94AB9002908BF00281CBF4FF0FF310D
:100280004FF0FF3000F074B9ADF1080C6DE904CE09
:1002900000F006F8DDF804E0DDE9022304B0704761
:1002A0002DE9F047089D04468E46002B4DD18A4229
:1002B000944669D9B2FA82F252B101FA02F3C2F15C
:1002C000200120FA01F10CFA02FC41EA030E9440ED
:1002D0004FEA1C48210CBEFBF8F61FFA8CF708FB0E
:1002E00016E341EA034306FB07F199420AD91CEBE6
:1002F000030306F1FF3080F01F81994240F21C8118
:10030000023E63445B1AA4B2B3FBF8F008FB10335F
:1003100044EA034400FB07F7A7420AD91CEB040494
:1003200000F1FF3380F00A81A74240F20781644464
:10033000023840EA0640E41B00261DB1D4400023E9
:10034000C5E900433146BDE8F0878B4209D9002D4D
:1003500000F0EF800026C5E9000130463146BDE8D7
:10036000F087B3FA83F6002E4AD18B4202D3824241
:1003700000F2F980841A61EB030301209E46002DF0
:10038000E0D0C5E9004EDDE702B9FFDEB2FA82F245
:10039000002A40F09280A1EB0C014FEA1C471FFAA3
:1003A0008CFE0126200CB1FBF7F307FB131140EA8A
:1003B00001410EFB03F0884208D91CEB010103F157
:1003C000FF3802D2884200F2CB804346091AA4B219
:1003D000B1FBF7F007FB101144EA01440EFB00FEED
:1003E000A64508D91CEB040400F1FF3102D2A64552
:1003F00000F2BB800846A4EB0E0440EA03409CE7F1
:10040000C6F12007B34022FA07FC4CEA030C20FA9D
:1004100007F401FA06F31C43F9404FEA1C4900FABD
:1004200006F3B1FBF9F8200C1FFA8CFE09FB18113A
:1004300040EA014108FB0EF0884202FA06F20BD9AD
:100440001CEB010108F1FF3A80F08880884240F2FD
:100450008580A8F102086144091AA4B2B1FBF9F041
:1004600009FB101144EA014100FB0EFE8E4508D93C
:100470001CEB010100F1FF346CD28E456AD90238C1
:10048000614440EA0840A0FB0294A1EB0E01A142A6
:10049000C846A64656D353D05DB1B3EB080261EB14
:1004A0000E0101FA07F722FA06F3F1401F43C5E9EE
:1004B000007100263146BDE8F087C2F12003D84024
:1004C0000CFA02FC21FA03F3914001434FEA1C4766
:1004D0001FFA8CFEB3FBF7F007FB10360B0C43EA58
:1004E000064300FB0EF69E4204FA02F408D91CEB08
:1004F000030300F1FF382FD29E422DD90238634406
:100500009B1B89B2B3FBF7F607FB163341EA0341A5
:1005100006FB0EF38B4208D91CEB010106F1FF38F4
:1005200016D28B4214D9023E6144C91A46EA0046EB
:1005300038E72E46284605E70646E3E61846F8E67D
:100540004B45A9D2B9EB020864EB0C0E0138A3E7C6
:100550004646EAE7204694E74046D1E7D0467BE7A7
:10056000023B614432E7304609E76444023842E71F
:10057000704700BF80B584B000AF78607B681B789F
:100580007F2B11D01E4804F0BDFB7B681B781946F9
:100590001C4804F0B7FB7B685B781946194804F0E7
:1005A000B1FB0223FB6016E0174804F0ABFB7B684D
:1005B0001B781946134804F0A5FB7B689B78194605
:1005C000104804F09FFB7B68DB7819460D4804F067
:1005D00099FB0323FB60FB68FB7206E05521094889
:1005E00004F090FBFB7A0133FB72FB7A062BF5D902
:1005F0000A2004F09FFB00BF1037BD4680BD00BF3E
:10060000585E0008685E0008705E000880B584B01F
:1006100000AF78600023FB730AE0FB7B7A68134429
:100620001B781946074804F06DFBFB7B0133FB7315
:10063000FB7B052BF1D90A2004F07CFB00BF1037AF
:10064000BD4680BD685E000880B584B000AF7860AC
:1006500039603B685A787B681A700023FB733B68EB
:1006600001331B78272B04D03B6801331B78672BA1
:1006700006D13B689A787B685A700323FB7309E0C4
:100680003B689A787B689A703B68DA787B68DA70A6
:100690000423FB737B680022DA80FB7BBB730EE0D4
:1006A000BB7B3A6813441B78552B0CD07B68DB88E6
:1006B00001339AB27B68DA80BB7B0133BB73BB7BAF
:1006C000072BEDD900E000BF7B68DB88184604F0FB
:1006D0001BFA03461A467B68DA607B68D868FB7BA6
:1006E0003A68D1187B68DB881A4604F015FA00BF17
:1006F0001037BD4680BD80B584B000AF78603960EA
:100700003B681B789BB203F00F03FB81FB891B0244
:100710001AB23B6801331B781BB213431BB29AB267
:100720007B68DA803B689A787B681A703B68DA7875
:100730007B689A703B681A797B68DA707B68032261
:100740009A807B6803221A727B68DB88184604F063
:10075000DBF903461A467B68DA607B68D8683B6839
:1007600005330322194604F0D7F900BF1037BD4600
:1007700080BD80B485B000AF786039600123FB7321
:1007800018E0FB7B3A6813441B78552B0FD0FB7B9A
:100790003A681A447B68DB68796889880B44127868
:1007A0001A707B689B8801339AB27B689A80FB7BC6
:1007B0000133FB73FB7B072BE3D900BF00BF14376A
:1007C000BD465DF8047B704780B588B000AF7860A7
:1007D00039600023BB77354A07F10C0392E8030028
:1007E00018600433198002330A0C1A70BB7F1B0196
:1007F0005AB27B689B885BB213435BB2DBB23B753A
:100800000023FB777B685B78002B08D07B681B7824
:100810007B757B685B78BB750223FB7721E07B6887
:100820001B787B757B689B78BB757B68DB78FB7579
:100830000323FB777B68DB88002B12D0FB7F07F15B
:1008400014021344581C7B6803F10C017B68DB889D
:100850001A4604F061F97B68DB88DAB2FB7F134447
:10086000FB77FB7F07F114021344581CFB7FC3F195
:1008700007031A4607F10C03194604F04DF93B68CB
:100880005C331A4607F1140303CB106051603868DB
:100890003B6803F128013B6803F15C023B686C3361
:1008A00002F095F900BF2037BD4680BD805E00088C
:1008B00080B586B000AF786039601023FB757B6827
:1008C0009B881B0A9BB2DAB2FB7D1343DBB23B73FE
:1008D0007B689B88DBB27B737B681B78BB737B6810
:1008E00002331B889BB2A7F80F307B68DA6807F1E8
:1008F00011031188927819809A707B6803221A720A
:100900003B685C331A4607F10C0303CB106051605F
:1009100038683B6803F128013B6803F15C023B68DF
:100920006C3302F054F900BF1837BD4680BD00009B
:1009300080B588B000AF7860396020233B777B6852
:100940009B8801333C4A82FB03121A449210DB1746
:10095000D31AD8B27B689B885A1C374B83FB02138F
:1009600013449910D317C91A0B46DB005B1AD11A2E
:10097000002914BF01230023DBB20344FB760123CB
:10098000FB777B68DB687B610023BB7749E0FB7FFB
:100990000F2B01D10023FB773A7FFB7F1343DBB2A0
:1009A0003B73FB7F0133FB7700237B7720E07B6881
:1009B0001B7A1A467B691A447B7F127820333B44AA
:1009C00003F8132C7B681B7A9AB27B68DB889A4207
:1009D00005D37B7F20333B44552203F8132C7B68DF
:1009E0001B7A0133DAB27B681A727B7F01337B7723
:1009F0007B7F062BDBD93B685C331A4607F10C037F
:100A000003CB1060516038683B6803F128013B68F4
:100A100003F15C023B686C3302F0D9F8BB7F013311
:100A2000BB77BA7FFB7E013B9A42B0DB00BF00BFC1
:100A30002037BD4680BD00BF9324499280B588B061
:100A400000AF3B600346FB710B46BB7113467B71E5
:100A50003023FB77FA7FFB791343DBB23B7500232E
:100A60007B750023BB75134A07F10C0392E8030062
:100A700018600433197007F1170307F10C021068AE
:100A8000186012791A713B685C331A4607F1140337
:100A900003CB1060516038683B6803F128013B6864
:100AA00003F15C023B686C3302F091F800BF203721
:100AB000BD4680BD885E000880B584B000AF786018
:100AC000396007233B727B681B787B727B689B785D
:100AD000BB727B68DB78FB7255233B7355237B73BA
:100AE0005523BB735523FB733B685C331A4607F1F0
:100AF000080303CB1060516038683B6803F128019C
:100B00003B6803F15C023B686C3302F060F800BFA5
:100B10001037BD4680BD000080B586B000AF78605C
:100B200039600023FB75FF23BB75002004F00AFA2F
:100B300002460B461346184604F088F904F0B4F94F
:100B40000246BB7D591CFB7DCB1A92FBF3F101FBE6
:100B500003F3D31ADAB2FB7D1344DAB2324B1A70C4
:100B600004F0A2F90246BB7D591CFB7DCB1A92FB17
:100B7000F3F101FB03F3D31ADAB2FB7D1344DAB2CB
:100B8000294B5A7004F090F90246BB7D591CFB7D3D
:100B9000CB1A92FBF3F101FB03F3D31ADAB2FB7D1C
:100BA0001344DAB2204B9A7004F07EF90246BB7D02
:100BB000591CFB7DCB1A92FBF3F101FB03F3D31A13
:100BC000DAB2FB7D1344DAB2174BDA7007233B73BA
:100BD0007B681B787B737B685B78BB73124B1B78DD
:100BE000FB73114B5B783B740F4B9B787B740E4B04
:100BF000DB78BB745523FB743B685C331A4607F102
:100C00000C0303CB1060516038683B6803F1280186
:100C10003B6803F15C023B686C3301F0D8FF00BF16
:100C20001837BD4680BD00BF6C02002080B584B07F
:100C300000AF7860396007233B727B681B78403BCC
:100C4000DBB27B727B685B780133DBB2BB727B68A3
:100C5000DB681B780233DBB2FB727B68DB68013335
:100C60001B780133DBB23B737B68DB6802331B7894
:100C70000133DBB27B737B68DB6803331B780133A2
:100C8000DBB2BB735523FB733B685C331A4607F139
:100C9000080303CB1060516038683B6803F12801FA
:100CA0003B6803F15C023B686C3301F090FF00BFCE
:100CB0001037BD4680BD000080B584B000AF7860BD
:100CC000396007233B72424B1B780133DAB2414B48
:100CD0001A703F4B5B780133DAB23E4B5A703C4B93
:100CE0009B780133DAB23B4B9A70394BDB78013396
:100CF000DAB2384BDA70374B1A787B68DB681B78CE
:100D00009A4245D1334B5A787B68DB6801331B78B4
:100D10009A423DD12F4B9A787B68DB6802331B786F
:100D20009A4235D12B4BDA787B68DB6803331B782A
:100D30009A422DD17B681B787B727B685B78BB7293
:100D40005523FB7255233B7355237B735523BB738C
:100D50005523FB73204B01221A701F4B1B781A4638
:100D600001211E4802F01AFE3B685C331A4607F167
:100D7000080303CB1060516038683B6803F1280119
:100D80003B6803F15C023B686C3301F020FF1BE021
:100D90007B681B78403BDAB27B681A703522396871
:100DA000786800F023F80E4804F048F80D4801F088
:100DB000C5FE42F2107001F03BF90A4801F07AFEDC
:100DC000094804F03BF800BF00BF1037BD4680BDA6
:100DD0006C02002070020020680200200004024023
:100DE000905E0008D4000020B05E000880B586B098
:100DF00000AFF860B9601346FB7107233B747F2393
:100E00007B74FB681B78BB74FB79FB7455233B75C3
:100E100055237B755523BB755523FB75BB685C3328
:100E20001A4607F1100303CB10605160B868BB6825
:100E300003F12801BB6803F15C02BB686C3301F06D
:100E4000C6FE00BF1837BD4680BD000080B588B023
:100E500000AF78606E4B6F4A0021786801F092FF16
:100E60006D4B93F864301B09FB776B4B1B6D082BA4
:100E700040F0CB80684B93F86530272B1FD1FB7F68
:100E8000002B1CD162496548FFF7DEFB634B1B78E2
:100E90004033DAB2614B1A70604B5B78012B04D19E
:100EA0005D495E48FFF738FEAAE05C4B5B78022B99
:100EB00040F0A68058495948FFF7FEFEA0E0584B85
:100EC0001B78002B14D1FB7F002B04D150495348D1
:100ED000FFF7BAFB03E04E495048FFF70CFC332202
:100EE0004D494E48FFF782FF4E4803F0A7FF8CE0C4
:100EF000FB7F032B00F2868001A252F823F000BF93
:100F0000110F0008AB0F0008D30F000805100008F0
:100F1000414B93F86530222B33D1434801F0F0F870
:100F2000414801F0BFF90346BB83BB8B1B0A9BB250
:100F3000DBB23B72BB8BDBB27B72374B93F8653015
:100F40004033DBB23B73344B93F86630BB73324BA8
:100F500093F86730FB7300237B7302237B823B890A
:100F60003B83BB8B1946314803F0CCFE7B8A0333AD
:100F70009BB23B8207F10C032749184600F01EF98B
:100F800042E0254B93F865302E2B3DD12049234874
:100F9000FFF75AFB214B1B784033DAB21F4B1A7014
:100FA0001D491E48FFF788FD2EE01B4B93F8663065
:100FB0002E2B0AD116491948FFF79DFB164B00222C
:100FC00000210020FFF73AFD1FE0194803F036FF2B
:100FD0001BE00F491148FFF7CCFB164803F092FEC7
:100FE0000E4BDB681846FFF711FB0C4B1B784033A8
:100FF000DAB20A4B1A7008490848FFF75DFD04E0B1
:1010000000BF02E000BF00E000BF2037BD4680BD4A
:101010003C02002018020020D801002048020020D5
:1010200068020020D45E00088C000020E85E000802
:10103000005F0008105F000880B590B000AF7860D6
:10104000574B584A0121786801F09CFE564B1B6DA6
:10105000082B40F09E80544B93F864301B0987F8AE
:101060003F3097F83F30002B03D0032B00F08C80EB
:1010700092E04D4B93F86530623B1D2B00F28B8064
:1010800001A252F823F000BF0111000897110008D7
:101090009711000897110008971100083D110008EA
:1010A0009711000897110008971100089711000880
:1010B00097110008971100083511000897110008D2
:1010C0009711000897110008971100089711000860
:1010D0009711000897110008971100089711000850
:1010E0009711000897110008971100089711000840
:1010F0009711000897110008971100086F11000858
:1011000007F12C0326491846FFF79EFABB6B1B78A4
:101110009BB21B029AB2BB6B01331B789BB2134488
:10112000BB87BB8F1946214803F0ECFD204803F034
:1011300085FE28E01E4803F081FE24E007F11C0331
:1011400017491846FFF780FA7B7F012B06D107F17C
:101150001C0315491846FFF769FD02E0154803F026
:101160006DFE07F11C031846FFF704FA0BE007F1C8
:101170000C030B491846FFF767FA07F10C031846F2
:10118000FFF7F8F900BF06E007490B48FFF7D0FB6F
:1011900002E000BF00E000BF00BF4037BD4680BD99
:1011A000CC010020A801002068010020245F000875
:1011B000405F0008505F00085802002080B584B0EE
:1011C00000AF786039607B689B88072B1AD87B68F2
:1011D0009A88224BA3FB0213D11A49080B449908A1
:1011E0000B46DB005B1AD31A9BB2DBB2C3F10703D9
:1011F000FB737B689A88FB7B9BB213449AB27B6833
:101200009A8019E07B689A88144BA3FB0213D11AC9
:1012100049080B4499080B46DB005B1AD31A9BB2B2
:10122000DBB2C3F10603FB737B689A88FB7B9BB23E
:1012300013449AB27B689A807B689B88072B04D9F9
:1012400039687868FFF734FB03E039687868FFF79E
:10125000BBFA00BF1037BD4680BD00BF25499224B0
:1012600080B582B000AF7860084611461A46034642
:10127000FB700B46BB7013467B70194803F0DEFD14
:10128000184803F03FFD7868FFF7C0F9164B2E228F
:101290001A70154ABB789370134A7B78D370FB7829
:1012A0009AB2114BDA80104BDB8803339AB20E4BA3
:1012B0009A80FB78184603F027FC03461A460A4B2F
:1012C000DA60094BDB68FA787968184603F024FC89
:1012D00006490548FFF772FF00BF0837BD4680BDCD
:1012E000685F0008905F0008580200206801002035
:1012F00080B586B000AF03460A46FB711346BB714A
:101300000D4803F09BFD22233B72FB79BB72BB7936
:10131000FB7200237B720023FB81FB8903339BB2AA
:10132000BB8107F1080305491846FFF747FF00BFD7
:101330001837BD4680BD00BFAC5F000868010020C3
:1013400080B582B000AF0346FB710D4803F076FD17
:101350000C4B27221A700B4AFB795370094B002261
:10136000DA80084BDB8802339AB2064B9A80064932
:101370000448FFF723FF00BF0837BD4680BD00BF0C
:10138000D45F0008580200206801002080B58AB0B0
:1013900000AF0346FB80FB88102B13D12A4A07F1CC
:1013A0001C0392E80300186004331980062387F8B1
:1013B000253097F8251007F11C000223F022FFF7D3
:1013C0004FFF3CE0FB88802B13D1204A07F1140328
:1013D00092E80300186004331980062387F826304A
:1013E00097F8261007F114000223F022FFF738FFC8
:1013F00025E0FB88B3F5005F13D1154A07F10C0314
:1014000092E80300186004331980062387F8273018
:1014100097F8271007F10C000223F022FFF720FFB6
:101420000DE0FB88022B03D10120FFF789FF06E0C6
:10143000FB88402B03D10021F020FFF759FF00BFAC
:101440002837BD4680BD00BFFC5F0008046000086F
:101450000C600008B0B500AF00F078FD00F054F863
:1014600000F0E2F900F0B6F900F00AF900F05EF9D8
:1014700000F0B4F8204801F01DFB204801F01AFBF1
:1014800002211D4801F090FD10211C4801F08CFD47
:101490001B4A194B14461D460FCD0FC40FCD0FC468
:1014A00095E8030084E80300154B08229A63144B67
:1014B00000221A63124B00225A63114B40F2A272AF
:1014C0009A62104A0D4B14461D460FCD0FC40FCD26
:1014D0000FC495E8030084E803000A4B08229A63CE
:1014E000084B00221A63074B00225A63054B40F257
:1014F00012729A62FEE700BFD4000020FC000020B8
:10150000D80100206801002080B594B000AF07F139
:10151000200330220021184603F00CFB07F10C03D6
:1015200000221A605A609A60DA601A610023BB6078
:10153000284B1B6C274A43F080531364254B1B6CCC
:1015400003F08053BB60BB6800237B60224B1B68A9
:10155000214A43F4804313601F4B1B6803F480430C
:101560007B607B6801233B624FF480337B62022304
:10157000BB634FF48003FB6304233B64A8237B64B9
:101580000223BB640423FB6407F12003184602F026
:1015900037FA0346002B01D000F002FA0F23FB605C
:1015A00002233B6100237B614FF4A053BB614FF4E6
:1015B0008053FB6107F10C030521184602F098FCEB
:1015C0000346002B01D000F0EBF900BF5037BD46B9
:1015D00080BD00BF003802400070004080B584B07C
:1015E00000AF3B4600221A605A609A60DA60214BD5
:1015F000214A1A601F4B4FF480325A601D4B002263
:101600009A601C4B00221A611A4B00221A76194B61
:10161000002283F82020174B0022DA62154B174A6C
:101620009A62144B0022DA60124B0122DA61114BEC
:10163000002283F830200F4B01225A610D4800F040
:101640001BFD0346002B01D000F0AAF900233B60EC
:1016500001237B600023BB603B461946054800F030
:101660002FFE0346002B01D000F09AF900BF10377F
:10167000BD4680BD8C000020002001400100000F0D
:1016800080B58AB000AF274B274A1A60254B042249
:101690005A60244B00229A60224B4FF08072DA602D
:1016A000204B4FF470221A611E4B4FF440125A61C6
:1016B0001C4B00221A761B4B01225A76194B012231
:1016C0009A76184B0022DA76164B00221A77154BC1
:1016D00000225A77134801F011F80346002B01D07D
:1016E00000F05EF901233B6212237B6100233B6122
:1016F0004EF240233B6000237B604EF24023BB60F0
:101700000023FB600023BB610123FB6114237B6288
:101710003B461946034801F0EDF800BF2837BD46A7
:1017200080BD00BFD40000200064004080B58AB0B6
:1017300000AF264B264A1A60244B04225A60234BE2
:1017400000229A60214B0022DA60204B4FF4702275
:101750001A611E4B4FF440125A611C4B00221A763C
:101760001A4B01225A76194B01229A76174B002206
:10177000DA76164B00221A77144B00225A77134858
:1017800000F0BCFF0346002B01D000F009F9012353
:101790003B6213237B6101233B614FF240433B607B
:1017A00000237B604FF24043BB600023FB600023BB
:1017B000BB610123FB6100237B623B461946034862
:1017C00001F098F800BF2837BD4680BDFC0000201E
:1017D0000068004080B500AF114B124A1A60104BF0
:1017E0004FF4E1325A600E4B00229A600C4B0022FB
:1017F000DA600B4B00221A61094B0C225A61084B2C
:1018000000229A61064B0022DA61054802F090FD41
:101810000346002B01D000F0C3F800BF80BD00BF1D
:10182000240100200010014080B58AB000AF07F10C
:10183000140300221A605A609A60DA601A61002369
:101840003B614A4B1B6B494A43F004031363474B0C
:101850001B6B03F004033B613B690023FB60434BBC
:101860001B6B424A43F080031363404B1B6B03F036
:101870008003FB60FB680023BB603C4B1B6B3B4A57
:1018800043F001031363394B1B6B03F00103BB608F
:10189000BB6800237B60354B1B6B344A43F002036B
:1018A0001363324B1B6B03F002037B607B680022E7
:1018B00001212F4802F072F842F290037B614FF44D
:1018C0000413BB610123FB6107F114031946294886
:1018D00001F0C8FE02237B614FF48813BB61012332
:1018E000FB6107F114031946234801F0BBFE0123F5
:1018F0007B610123BB610023FB6100233B6207F195
:10190000140319461A4801F0ADFE40237B614FF4E1
:101910008813BB610123FB6107F1140319461548C5
:1019200001F0A0FE00220221072001F064FE072042
:1019300001F07DFE002202210A2001F05CFE0A2057
:1019400001F075FE00220221172001F054FE17203D
:1019500001F06DFE00220221282001F04CFE28201B
:1019600001F065FE00BF2837BD4680BD003802404B
:1019700000040240000802400000024080B582B02E
:1019800000AF7860391D64230122044802F01DFD78
:101990007B6818460837BD4680BD00BF2401002083
:1019A00080B400AF72B600BFFEE7000080B483B021
:1019B00000AF00237B60104B5B6C0F4A43F4804305
:1019C00053640D4B5B6C03F480437B607B680023A6
:1019D0003B60094B1B6C084A43F080531364064B71
:1019E0001B6C03F080533B603B6800BF0C37BD4667
:1019F0005DF8047B704700BF0038024080B58AB0B4
:101A000000AF786007F1140300221A605A609A60F0
:101A1000DA601A617B681B68174A934227D100235A
:101A20003B61164B5B6C154A43F480735364134B54
:101A30005B6C03F480733B613B690023FB600F4BDD
:101A40001B6B0E4A43F0010313630C4B1B6B03F03B
:101A50000103FB60FB6801237B610323BB6100235F
:101A6000FB6107F114031946054801F0FBFD00BFB7
:101A70002837BD4680BD00BF00200140003802402D
:101A80000000024080B58CB000AF786007F11C0305
:101A900000221A605A609A60DA601A617B681B68DB
:101AA0004A4A93423ED14A4B1B680133484A13606D
:101AB000474B1B68012B0DD10023BB61454B1B6CB1
:101AC000444A43F000731364424B1B6C03F00073F1
:101AD000BB61BB6900237B613E4B1B6B3D4A43F0FE
:101AE000010313633B4B1B6B03F001037B617B69B9
:101AF0004FF4C053FB6102233B6200237B6203234C
:101B0000BB620923FB6207F11C031946324801F04E
:101B1000A9FD00220321142001F06DFD142001F025
:101B200086FD4FE07B681B682C4A93424AD1002314
:101B30003B61284B1B6C274A43F080631364254BA1
:101B40001B6C03F080633B613B69214B1B680133D5
:101B50001F4A13601E4B1B68012B0DD10023FB6035
:101B60001C4B1B6C1B4A43F000731364194B1B6C1A
:101B700003F00073FB60FB680023BB60154B1B6B1D
:101B8000144A43F002031363124B1B6B03F002036E
:101B9000BB60BB686023FB6102233B6200237B6266
:101BA0000323BB620923FB6207F11C0319460C489F
:101BB00001F058FD00220321412001F01CFD4120CD
:101BC00001F035FD00BF3037BD4680BD00640040E8
:101BD000740200200038024000000240006800400B
:101BE0000004024080B58AB000AF786007F11403AA
:101BF00000221A605A609A60DA601A617B681B687A
:101C0000194A93422CD100233B61184B5B6C174A55
:101C100043F010035364154B5B6C03F010033B61FE
:101C20003B690023FB60114B1B6B104A43F001031F
:101C300013630E4B1B6B03F00103FB60FB684FF457
:101C4000C0637B610223BB610023FB6103233B6212
:101C500007237B6207F114031946054801F002FDD2
:101C600000BF2837BD4680BD00100140003802404B
:101C70000000024080B400AFFEE780B400AFFEE792
:101C800080B400AFFEE780B400AFFEE780B400AFE1
:101C9000FEE780B400AF00BFBD465DF8047B70472F
:101CA00080B400AF00BFBD465DF8047B704780B4D0
:101CB00000AF00BFBD465DF8047B704780B500AF44
:101CC00000F096F900BF80BD80B500AF022001F0A2
:101CD0007FFE00BF80BD80B500AF4FF4FA7000F00A
:101CE000A7F9102001F074FE00BF80BD80B500AFE1
:101CF000024801F07FF900BF80BD00BFD400002082
:101D000080B500AF4FF4FA7000F092F9402001F076
:101D10005FFE802001F05CFE00BF80BD80B500AF9B
:101D20004FF4FA7000F084F94FF4005001F050FEC7
:101D300000BF80BD80B500AF024801F05BF900BF75
:101D400080BD00BFFC00002080B400AF0123184616
:101D5000BD465DF8047B704780B582B000AF786007
:101D6000396002F0A7FE034616221A604FF0FF33D7
:101D700018460837BD4680BD80B582B000AF786098
:101D80004FF0FF317868FFF7E7FFFEE780B586B0D8
:101D900000AFF860B9607A6000237B610AE0AFF3BE
:101DA00000800146BB685A1CBA60CAB21A707B69CF
:101DB00001337B617A697B689A42F0DB7B68184665
:101DC0001837BD4680BD80B586B000AFF860B960F9
:101DD0007A6000237B6109E0BB685A1CBA601B78FB
:101DE0001846FFF7CBFD7B6901337B617A697B681D
:101DF0009A42F1DB7B6818461837BD4680BD80B437
:101E000083B000AF78604FF0FF3318460C37BD4603
:101E10005DF8047B704780B483B000AF78603960B0
:101E20003B684FF400525A60002318460C37BD46F9
:101E30005DF8047B704780B483B000AF7860012305
:101E400018460C37BD465DF8047B704780B485B0FA
:101E500000AFF860B9607A60002318461437BD46B9
:101E60005DF8047B7047000080B586B000AF7860F5
:101E7000144A154BD31A7B617B693B61134B1B687A
:101E8000002B02D1114B124A1A60104B1A687B6862
:101E900013443A699A4207D202F00CFE03460C2220
:101EA0001A604FF0FF3309E0084B1B68FB60074BDB
:101EB0001A687B681344054A1360FB681846183794
:101EC000BD4680BD00000220000400007802002012
:101ED0009002002080B400AF064BD3F88830054A4A
:101EE00043F47003C2F8883000BFBD465DF8047B40
:101EF000704700BF00ED00E0DFF834D00D480E4918
:101F00000E4A002302E0D458C4500433C4188C4253
:101F1000F9D30B4A0B4C002301E013600432A242B8
:101F2000FBD3FFF7D7FF02F0CBFDFFF793FA704723
:101F300000000220000000207000002084610008E2
:101F40007000002090020020FEE7000080B500AF86
:101F50000E4B1B680D4A43F4007313600B4B1B6858
:101F60000A4A43F480631360084B1B68074A43F432
:101F700080731360032001F033FB012000F008F8A8
:101F8000FFF714FD0023184680BD00BF003C02404F
:101F900080B582B000AF7860124B1A68124B1B7884
:101FA00019464FF47A73B3FBF1F3B2FBF3F318461F
:101FB00001F04BFB0346002B01D001230EE07B68B0
:101FC0000F2B0AD8002279684FF0FF3001F013FB85
:101FD000064A7B681360002300E001231846083797
:101FE000BD4680BD00000020080000200400002045
:101FF00080B400AF064B1B781A46064B1B6813448F
:10200000044A136000BFBD465DF8047B704700BF03
:10201000080000207C02002080B400AF034B1B6846
:102020001846BD465DF8047B704700BF7C02002067
:1020300080B584B000AF7860FFF7EEFFB8607B68D2
:10204000FB60FB68B3F1FF3F05D00A4B1B781A46D3
:10205000FB681344FB6000BFFFF7DEFF0246BB686E
:10206000D31AFA689A42F7D800BF00BF1037BD46AE
:1020700080BD00BF0800002080B584B000AF78604C
:102080000023FB737B68002B01D1012333E07B68C5
:102090001B6C002B09D17868FFF7B0FC7B6800222D
:1020A0005A647B68002283F83C207B681B6C03F039
:1020B0001003002B18D17B681B6C23F4885323F08A
:1020C000020343F002027B681A64786800F01AFA8F
:1020D0007B6800225A647B681B6C23F0030343F087
:1020E00001027B681A6401E00123FB737B68002214
:1020F00083F83C20FB7B18461037BD4680BD0000AE
:1021000080B485B000AF78600023BB607B6893F833
:102110003C30012B01D10223B2E07B68012283F81D
:102120003C207B681B689B6803F00103012B18D0DF
:102130007B681B689A687B681B6842F001029A60A2
:10214000524B1B68524AA2FB03239A0C13465B00B6
:102150001344BB6002E0BB68013BBB60BB68002B63
:10216000F9D17B681B689B6803F00103012B7AD1CE
:102170007B681B6C23F4E06323F0010343F480725B
:102180007B681A647B681B685B6803F48063002BC0
:1021900007D07B681B6C23F4405343F480527B6868
:1021A0001A647B681B6C03F48053B3F5805F06D11F
:1021B0007B685B6C23F006027B685A6402E07B68F4
:1021C00000225A647B68002283F83C20314BFB607C
:1021D0007B681B686FF022021A60FB685B6803F083
:1021E0001F03002B2AD17B681B682B4A934215D012
:1021F0007B681B68294A934205D1264B5B6803F034
:102200001F03002B0AD07B681B68254A934236D1F6
:10221000204B5B6803F01003002B30D17B681B68F8
:102220009B6803F04053002B29D17B681B689A6898
:102230007B681B6842F080429A6020E07B681B68E4
:10224000154A93421BD17B681B689B6803F040537F
:10225000002B14D17B681B689A687B681B6842F06E
:1022600080429A600BE07B681B6C43F010027B6835
:102270001A647B685B6C43F001027B685A6400233C
:1022800018461437BD465DF8047B704700000020F7
:1022900083DE1B4300230140002001400021014058
:1022A0000022014080B483B000AF78607B681B6877
:1022B000DB6C18460C37BD465DF8047B70470000A8
:1022C00080B485B000AF786039600023BB607B6864
:1022D00093F83C30012B01D1022305E17B680122F8
:1022E00083F83C203B681B68092B25D97B681B6859
:1022F000D9683B681B689BB21A4613465B001344BF
:102300001E3B072202FA03F3DA437B681B680A408C
:10231000DA607B681B68D9683B689A683B681B6811
:102320009BB2184603465B0003441E3B9A407B6801
:102330001B680A43DA6022E07B681B6819693B6806
:102340001B689BB21A4613465B001344072202FA2D
:1023500003F3DA437B681B680A401A617B681B68D9
:1023600019693B689A683B681B689BB2184603462C
:102370005B0003449A407B681B680A431A613B6810
:102380005B68062B24D87B681B68596B3B685A68CE
:1023900013469B001344053B1F2202FA03F3DA4362
:1023A0007B681B680A405A637B681B68596B3B68F3
:1023B0001B689BB218463B685A6813469B0013443F
:1023C000053B00FA03F27B681B680A435A634CE042
:1023D0003B685B680C2B24D87B681B68196B3B68D7
:1023E0005A6813469B001344233B1F2202FA03F34F
:1023F000DA437B681B680A401A637B681B68196BA9
:102400003B681B689BB218463B685A6813469B00A2
:102410001344233B00FA03F27B681B680A431A63E8
:1024200023E07B681B68D96A3B685A6813469B00A7
:102430001344413B1F2202FA03F3DA437B681B6813
:102440000A40DA627B681B68D96A3B681B689BB2EA
:1024500018463B685A6813469B001344413B00FAF8
:1024600003F27B681B680A43DA62224BFB607B68DD
:102470001B68214A934209D13B681B68122B05D186
:10248000FB685B6843F48002FB685A607B681B68EA
:10249000194A934223D13B681B68102B03D03B6839
:1024A0001B68112B1BD1FB685B6843F40002FB68BF
:1024B0005A603B681B68102B11D1104B1B68104AE7
:1024C000A2FB03239A0C13469B0013445B00BB60E2
:1024D00002E0BB68013BBB60BB68002BF9D17B68A5
:1024E000002283F83C20002318461437BD465DF8CF
:1024F000047B7047002301400020014000000020C1
:1025000083DE1B4380B485B000AF7860794BFB60FD
:10251000FB685B6823F44032FB685A60FB685A68CA
:102520007B685B681A43FB685A607B681B685A6863
:102530007B681B6822F480725A607B681B6859684C
:102540007B681B691A027B681B680A435A607B68B8
:102550001B685A687B681B6822F040725A607B686F
:102560001B6859687B689A687B681B680A435A60D5
:102570007B681B689A687B681B6822F400629A601B
:102580007B681B6899687B68DA687B681B680A430C
:102590009A607B689B6A584A934222D07B681B688A
:1025A0009A687B681B6822F070629A607B681B687F
:1025B00099687B689A6A7B681B680A439A607B68A3
:1025C0001B689A687B681B6822F040529A607B689F
:1025D0001B6899687B68DA6A7B681B680A439A60A3
:1025E0000FE07B681B689A687B681B6822F070624A
:1025F0009A607B681B689A687B681B6822F040526F
:102600009A607B681B689A687B681B6822F00202EC
:102610009A607B681B6899687B681B7E5A007B68A0
:102620001B680A439A607B6893F82030002B1BD00C
:102630007B681B685A687B681B6842F400625A60BA
:102640007B681B685A687B681B6822F460425A608A
:102650007B681B6859687B685B6A013B5A037B682F
:102660001B680A435A6007E07B681B685A687B68EE
:102670001B6822F400625A607B681B68DA6A7B6818
:102680001B6822F47002DA627B681B68D96A7B6877
:10269000DB69013B1A057B681B680A43DA627B68C9
:1026A0001B689A687B681B6822F400729A607B68DA
:1026B0001B6899687B6893F830305A027B681B6806
:1026C0000A439A607B681B689A687B681B6822F4DF
:1026D00080629A607B681B6899687B685B699A0274
:1026E0007B681B680A439A6000BF1437BD465DF8DB
:1026F000047B7047002301400100000F80B584B0C7
:1027000000AF78607B68002B01D10123EDE07B688E
:1027100093F82030DBB2002B02D17868FFF7B2F9D2
:102720007B681B681A687B681B6842F001021A60AC
:10273000FFF772FCF86012E0FFF76EFC0246FB68E0
:10274000D31A0A2B0BD97B685B6A43F400327B688F
:102750005A627B68052283F820200123C5E07B684C
:102760001B685B6803F00103002BE5D07B681B68E6
:102770001A687B681B6822F002021A60FFF74CFCA3
:10278000F86012E0FFF748FC0246FB68D31A0A2BF8
:102790000BD97B685B6A43F400327B685A627B68C2
:1027A000052283F8202001239FE07B681B685B687B
:1027B00003F00203002BE5D17B681B7E012B08D1BF
:1027C0007B681B681A687B681B6842F080021A608D
:1027D00007E07B681B681A687B681B6822F0800230
:1027E0001A607B685B7E012B08D17B681B681A68C6
:1027F0007B681B6842F040021A6007E07B681B6838
:102800001A687B681B6822F040021A607B689B7E16
:10281000012B08D17B681B681A687B681B6842F033
:1028200020021A6007E07B681B681A687B681B68D7
:1028300022F020021A607B68DB7E012B08D17B68C6
:102840001B681A687B681B6822F010021A6007E098
:102850007B681B681A687B681B6842F010021A606C
:102860007B681B7F012B08D17B681B681A687B681B
:102870001B6842F008021A6007E07B681B681A6850
:102880007B681B6822F008021A607B685B7F012B63
:1028900008D17B681B681A687B681B6842F00402D9
:1028A0001A6007E07B681B681A687B681B6822F067
:1028B00004021A607B689A687B68DB681A437B684D
:1028C0001B691A437B685B6942EA03017B685B68AA
:1028D0005A1E7B681B680A43DA617B6800225A62D1
:1028E0007B68012283F82020002318461037BD465C
:1028F00080BD000080B487B000AF786039607B682D
:102900001B687B617B6893F82030FB74FB7C012B98
:1029100003D0FB7C022B40F0BE80654B7B617B6962
:10292000D3F8003243F001027B69C3F800227B69CF
:10293000D3F8003223F47C527B69C3F800227B6910
:10294000D3F800223B685B6A1B021A437B69C3F819
:1029500000223B685B6903F01F03012202FA03F3C4
:10296000FB607B69D3F81C22FB68DB431A407B6960
:10297000C3F81C223B68DB69002B23D17B69D3F8A9
:102980000C22FB68DB431A407B69C3F80C223B68CE
:10299000DB6819043B685B689BB23A68526919436B
:1029A0007B69483243F832103B689B6819043B68E6
:1029B0001B689AB23B685B690A4379694833DB005C
:1029C0000B445A603B68DB69012B22D17B69D3F849
:1029D0000C22FB681A437B69C3F80C223B681B6816
:1029E00019043B685B689BB23A68526919437B697A
:1029F000483243F832103B689B6819043B68DB6837
:102A00009AB23B685B690A4379694833DB000B443F
:102A10005A603B689B69002B09D17B69D3F804227B
:102A2000FB68DB431A407B69C3F8042207E07B693B
:102A3000D3F80422FB681A437B69C3F804223B687D
:102A40001B69002B09D17B69D3F81422FB68DB4397
:102A50001A407B69C3F8142207E07B69D3F814227B
:102A6000FB681A437B69C3F814223B681B6A012B7D
:102A700007D17B69D3F81C22FB681A437B69C3F832
:102A80001C227B69D3F8003223F001027B69C3F872
:102A90000022002306E07B685B6A43F480227B68A7
:102AA0005A62012318461C37BD465DF8047B704707
:102AB0000064004080B584B000AF78607B6893F814
:102AC0002030DBB2012B2ED17B68022283F820203C
:102AD0007B681B681A687B681B6822F001021A6019
:102AE000FFF79AFAF86012E0FFF796FA0246FB68E1
:102AF000D31A0A2B0BD97B685B6A43F400327B68DC
:102B00005A627B68052283F82020012312E07B684B
:102B10001B685B6803F00103002BE5D17B68002292
:102B20005A62002306E07B685B6A43F400227B68FC
:102B30005A62012318461037BD4680BD80B584B067
:102B400000AF78607B6893F82030DBB2022B33D182
:102B50007B681B681A687B681B6842F001021A6078
:102B6000FFF75AFAF86012E0FFF756FA0246FB68E0
:102B7000D31A0A2B0BD97B685B6A43F400327B685B
:102B80005A627B68052283F8202001231BE07B68C2
:102B90001B685B6803F00103002BE5D07B681B68B2
:102BA0001A687B681B6822F002021A607B680122A7
:102BB00083F82020002306E07B685B6A43F48012E0
:102BC0007B685A62012318461037BD4680BD80B429
:102BD00089B000AFF860B9607A603B60FB6893F839
:102BE0002030FB77FB681B689B68BB61FB7F012B78
:102BF00003D0FB7F022B40F0B880BB6903F08063F9
:102C0000002B0AD1BB6903F00063002B05D1BB691F
:102C100003F08053002B00F0A080BB691B0E03F073
:102C200003037B617B69022B07D9FB685B6A43F472
:102C30000002FB685A6201239EE001227B699A40F0
:102C40003B681A60BB689B68002B0DD1BB681B6892
:102C50005A05BB68DB68F96809681A437B69183351
:102C60001B010B441A600FE0BB685B68DA00BB68AD
:102C70009B681A43BB68DB68F96809681A437B697B
:102C800018331B010B441A60FB681968BB681A698A
:102C90007B6918331B010B4404331A60BB681B7D2E
:102CA000012B11D1FB681A687B6918331B0113448F
:102CB00004331B68FA68116843F480727B69183327
:102CC0001B010B4404331A607B6807331B781A0618
:102CD0007B6806331B781B041A437B6805331B781B
:102CE0001B0213437A68043212781046FA6811689E
:102CF00043EA00027B691B010B4403F5C6731A60AB
:102D00007B6803331B781A067B6802331B781B042D
:102D10001A437B6801331B781B0213437A681278CD
:102D20001046FA68116843EA00027B691B010B44F4
:102D300003F5C4731A60FB681A687B6918331B01BA
:102D400013441B68FA68116843F001027B69183369
:102D50001B010B441A6000230EE0FB685B6A43F41E
:102D60000012FB685A62012306E0FB685B6A43F4C9
:102D70008022FB685A62012318462437BD465DF85D
:102D8000047B704780B487B000AFF860B9607A60A8
:102D90003B60FB6893F82030FB75FB7D012B03D073
:102DA000FB7D022B40F0F380BB68002B0ED1FB684B
:102DB0001B68DB6803F00303002B16D1FB685B6A1A
:102DC00043F40012FB685A620123E7E0FB681B68CA
:102DD0001B6903F00303002B07D1FB685B6A43F414
:102DE0000012FB685A620123D8E0FB681A68BB68CE
:102DF0001B331B0113441B6803F004027B689A60B9
:102E00007B689B68002B0CD1FB681A68BB681B337E
:102E10001B0113441B685B0DC3F30A027B681A6035
:102E20000BE0FB681A68BB681B331B0113441B686B
:102E3000DB0823F060427B685A60FB681A68BB6855
:102E40001B331B0113441B6803F002027B68DA602A
:102E5000FB681A68BB681B331B01134404331B68EF
:102E600003F00F027B681A61FB681A68BB681B33AA
:102E70001B01134404331B681B0ADAB27B689A6196
:102E8000FB681A68BB681B331B01134404331B68BF
:102E90001B0C9AB27B685A61FB681A68BB681B01FD
:102EA000134403F5DC731B68DAB23B681A70FB68E5
:102EB0001A68BB681B01134403F5DC731B681A0A0C
:102EC0003B680133D2B21A70FB681A68BB681B01F9
:102ED000134403F5DC731B681A0C3B680233D2B24F
:102EE0001A70FB681A68BB681B01134403F5DC7396
:102EF0001B681A0E3B680333D2B21A70FB681A685B
:102F0000BB681B01134403F5DE731A683B68043386
:102F1000D2B21A70FB681A68BB681B01134403F530
:102F2000DE731B681A0A3B680533D2B21A70FB685D
:102F30001A68BB681B01134403F5DE731B681A0C87
:102F40003B680633D2B21A70FB681A68BB681B0173
:102F5000134403F5DE731B681A0E3B680733D2B2C5
:102F60001A70BB68002B08D1FB681B68DA68FB6825
:102F70001B6842F02002DA6007E0FB681B681A69F0
:102F8000FB681B6842F020021A61002306E0FB6820
:102F90005B6A43F48022FB685A62012318461C379F
:102FA000BD465DF8047B704780B485B000AF7860A3
:102FB00039607B6893F82030FB73FB7B012B02D0D8
:102FC000FB7B022B09D17B681B6859697B681B68F6
:102FD0003A680A435A61002306E07B685B6A43F45F
:102FE00080227B685A62012318461437BD465DF87B
:102FF000047B704780B58AB000AF786000237B62A5
:103000007B681B685B693B627B681B685B68FB6174
:103010007B681B689B68BB617B681B68DB687B61A6
:103020007B681B681B693B617B681B689B69FB6055
:103030003B6A03F00103002B7CD0BB6903F0010362
:10304000002B23D07B681B6801229A60BB6903F0C8
:103050000203002B03D0786800F083F916E0BB6907
:1030600003F00403002B04D07B6A43F400637B620B
:103070000CE0BB6903F00803002B04D07B6A43F427
:1030800080537B6202E0786800F089F9BB6903F441
:103090008073002B24D07B681B684FF480729A6089
:1030A000BB6903F40073002B03D0786800F063F968
:1030B00016E0BB6903F48063002B04D07B6A43F401
:1030C00000537B620CE0BB6903F40063002B04D067
:1030D0007B6A43F480437B6202E0786800F069F920
:1030E000BB6903F48033002B24D07B681B684FF44A
:1030F00080329A60BB6903F40033002B03D07868F8
:1031000000F043F916E0BB6903F48023002B04D0E0
:103110007B6A43F400437B620CE0BB6903F4002349
:10312000002B04D07B6A43F480337B6202E0786832
:1031300000F049F93B6A03F00803002B0CD07B69CF
:1031400003F01003002B07D07B6A43F400737B620B
:103150007B681B681022DA603B6A03F00403002BD3
:103160000BD07B6903F00803002B06D07B681B683B
:103170000822DA60786800F030F93B6A03F0020355
:10318000002B09D07B681B68DB6803F00303002B6E
:1031900002D07868FDF75AFE3B6A03F04003002B2B
:1031A0000CD03B6903F01003002B07D07B6A43F47B
:1031B00080637B627B681B6810221A613B6A03F0A4
:1031C0002003002B0BD03B6903F00803002B06D033
:1031D0007B681B6808221A61786800F008F93B6A6E
:1031E00003F01003002B09D07B681B681B6903F0F8
:1031F0000303002B02D07868FDF71EFF3B6A03F43F
:103200000033002B0BD0FB6903F01003002B06D01A
:103210007B681B6810225A60786800F0F2F83B6AFD
:1032200003F48033002B0BD0FB6903F00803002B61
:1032300006D07B681B6808225A60786800F0EBF8BB
:103240003B6A03F40043002B7BD0FB6903F00403CB
:10325000002B72D03B6A03F48073002B08D0FB680C
:1032600003F00103002B03D07B6A43F001037B6270
:103270003B6A03F40073002B08D0FB6803F00203E1
:10328000002B03D07B6A43F002037B623B6A03F4AA
:103290008063002B08D0FB6803F00403002B03D0ED
:1032A0007B6A43F004037B623B6A03F40063002BF8
:1032B00043D0FB6803F07003002B3ED0FB6803F0A3
:1032C0007003602B2BD0602B2ED8502B22D0502B8C
:1032D0002AD8402B19D0402B26D8302B10D0302B99
:1032E00022D8102B02D0202B05D01DE07B6A43F0A2
:1032F00008037B6219E07B6A43F010037B6214E0F1
:103300007B6A43F020037B620FE07B6A43F040035B
:103310007B620AE07B6A43F080037B6205E07B6AA4
:1033200043F480737B6200E000BF7B681B689A698E
:103330007B681B6822F070029A617B681B6804221C
:103340005A607B6A002B08D07B685A6A7B6A1A43F2
:103350007B685A62786800F068F800BF2837BD467D
:1033600080BD80B483B000AF786000BF0C37BD462D
:103370005DF8047B704780B483B000AF786000BF15
:103380000C37BD465DF8047B704780B483B000AF56
:10339000786000BF0C37BD465DF8047B704780B491
:1033A00083B000AF786000BF0C37BD465DF8047B8A
:1033B000704780B483B000AF786000BF0C37BD4663
:1033C0005DF8047B704780B483B000AF786000BFC5
:1033D0000C37BD465DF8047B704780B483B000AF06
:1033E000786000BF0C37BD465DF8047B704780B441
:1033F00083B000AF786000BF0C37BD465DF8047B3A
:10340000704780B483B000AF786000BF0C37BD4612
:103410005DF8047B704780B483B000AF786000BF74
:103420000C37BD465DF8047B704780B483B000AFB5
:10343000786000BF0C37BD465DF8047B7047000024
:1034400080B485B000AF78607B6803F00703FB6051
:103450000C4BDB68BB60BA684FF6FF031340BB60E0
:10346000FB681A02BB68134343F0BF6343F40033A5
:10347000BB60044ABB68D36000BF1437BD465DF82B
:10348000047B704700ED00E080B400AF044BDB68C4
:103490001B0A03F007031846BD465DF8047B70471E
:1034A00000ED00E080B483B000AF0346FB7197F9F4
:1034B0000730002B0BDBFB7903F01F02074997F95C
:1034C00007305B09012000FA02F241F8232000BF17
:1034D0000C37BD465DF8047B704700BF00E100E09B
:1034E00080B483B000AF03463960FB7197F90730B1
:1034F000002B0ADB3B68DAB20C4997F9073012015E
:10350000D2B20B4483F800230AE03B68DAB20849E0
:10351000FB7903F00F03043B1201D2B20B441A767D
:1035200000BF0C37BD465DF8047B704700E100E04A
:1035300000ED00E080B489B000AFF860B9607A6057
:10354000FB6803F00703FB61FB69C3F10703042B6E
:1035500028BF0423BB61FB690433062B02D9FB6936
:10356000033B00E000237B614FF0FF32BB6902FAAE
:1035700003F3DA43BB681A407B699A404FF0FF318E
:103580007B6901FA03F3D9437B680B401343184668
:103590002437BD465DF8047B7047000080B582B0DB
:1035A00000AF78607B68013BB3F1807F01D30123DA
:1035B0000FE00A4A7B68013B53600F214FF0FF3058
:1035C000FFF78EFF054B00229A60044B07221A601A
:1035D000002318460837BD4680BD00BF10E000E05C
:1035E00080B582B000AF78607868FFF729FF00BF30
:1035F0000837BD4680BD80B586B000AF0346B960D0
:103600007A60FB7300237B61FFF73EFF78617A6885
:10361000B9687869FFF78EFF024697F90F301146B7
:103620001846FFF75DFF00BF1837BD4680BD80B567
:1036300082B000AF0346FB7197F907301846FFF7D9
:1036400031FF00BF0837BD4680BD80B582B000AFF6
:1036500078607868FFF7A2FF034618460837BD4632
:1036600080BD000080B489B000AF7860396000236D
:103670007B6100233B610023BB610023FB616BE1A5
:103680000122FB6902FA03F37B613B681B687A69DC
:1036900013403B613A697B699A4240F05A813B682A
:1036A0005B6803F00303012B05D03B685B6803F004
:1036B0000303022B30D17B689B68BB61FB695B0015
:1036C000032202FA03F3DB43BA691340BB613B6890
:1036D000DA68FB695B0002FA03F3BA691343BB6162
:1036E0007B68BA699A607B685B68BB610122FB6991
:1036F00002FA03F3DB43BA691340BB613B685B68C2
:103700001B0903F00102FB6902FA03F3BA691343D0
:10371000BB617B68BA695A603B685B6803F003036E
:10372000032B17D07B68DB68BB61FB695B0003225E
:1037300002FA03F3DB43BA691340BB613B689A6842
:10374000FB695B0002FA03F3BA691343BB617B6850
:10375000BA69DA603B685B6803F00303022B23D18C
:10376000FB69DA087B68083253F82230BB61FB69D9
:1037700003F007039B000F2202FA03F3DB43BA694D
:103780001340BB613B681A69FB6903F007039B00A8
:1037900002FA03F3BA691343BB61FB69DA087B6879
:1037A0000832B96943F822107B681B68BB61FB696A
:1037B0005B00032202FA03F3DB43BA691340BB61E7
:1037C0003B685B6803F00302FB695B0002FA03F3EA
:1037D000BA691343BB617B68BA691A603B685B686E
:1037E00003F44033002B00F0B4800023FB60604BF7
:1037F0005B6C5F4A43F4804353645D4B5B6C03F442
:103800008043FB60FB685B4AFB699B08023352F80C
:103810002330BB61FB6903F003039B000F2202FA14
:1038200003F3DB43BA691340BB617B68524A93429E
:103830002BD07B68514A934225D07B68504A9342F3
:103840001FD07B684F4A934219D07B684E4A9342FF
:1038500013D07B684D4A93420DD07B684C4A93420B
:1038600007D07B684B4A934201D107230EE008231F
:103870000CE006230AE0052308E0042306E0032306
:1038800004E0022302E0012300E00023FA6902F0D1
:10389000030292009340BA691343BB613549FB6947
:1038A0009B080233BA6941F823203B4B9B68BB61FC
:1038B0003B69DB43BA691340BB613B685B6803F457
:1038C0008013002B03D0BA693B691343BB61324AB2
:1038D000BB699360304BDB68BB613B69DB43BA6912
:1038E0001340BB613B685B6803F40013002B03D0FB
:1038F000BA693B691343BB61274ABB69D360264B56
:103900005B68BB613B69DB43BA691340BB613B68E1
:103910005B6803F40033002B03D0BA693B6913439F
:10392000BB611D4ABB6953601B4B1B68BB613B6994
:10393000DB43BA691340BB613B685B6803F48033C7
:10394000002B03D0BA693B691343BB61124ABB69C0
:103950001360FB690133FB61FB690F2B7FF690AEAF
:1039600000BF00BF2437BD465DF8047B704700BF31
:1039700000380240003801400000024000040240CC
:1039800000080240000C02400010024000140240F7
:1039900000180240001C0240003C014080B483B08B
:1039A00000AF78600B467B8013467B707B78002BE2
:1039B00003D07A887B689A6103E07B881A047B686D
:1039C0009A6100BF0C37BD465DF8047B704700006C
:1039D00080B582B000AF0346FB80084B5A69FB8874
:1039E0001340002B06D0054AFB885361FB8818461C
:1039F000FDF7CCFC00BF0837BD4680BD003C014050
:103A000080B586B000AF78607B68002B01D10123C0
:103A100067E27B681B6803F00103002B75D0884BBD
:103A20009B6803F00C03042B0CD0854B9B6803F0C0
:103A30000C03082B12D1824B5B6803F48003B3F5AF
:103A4000800F0BD17E4B1B6803F40033002B5BD03F
:103A50007B685B68002B57D1012342E27B685B687F
:103A6000B3F5803F06D1764B1B68754A43F480332B
:103A700013601DE07B685B68B3F5A02F0CD1704B21
:103A80001B686F4A43F4802313606D4B1B686C4ABC
:103A900043F4803313600BE0694B1B68684A23F4DE
:103AA00080331360664B1B68654A23F480231360E0
:103AB0007B685B68002B13D0FEF7AEFA386108E034
:103AC000FEF7AAFA02463B69D31A642B01D90323F5
:103AD00007E25B4B1B6803F40033002BF0D014E0CB
:103AE000FEF79AFA386108E0FEF796FA02463B695B
:103AF000D31A642B01D90323F3E1514B1B6803F460
:103B00000033002BF0D100E000BF7B681B6803F09E
:103B10000203002B63D04A4B9B6803F00C03002B7D
:103B20000BD0474B9B6803F00C03082B1CD1444B74
:103B30005B6803F48003002B16D1414B1B6803F034
:103B40000203002B05D07B68DB68012B01D0012329
:103B5000C7E13B4B1B6823F0F8027B681B69DB0065
:103B6000374913430B603AE07B68DB68002B20D0B9
:103B7000344B01221A60FEF74FFA386108E0FEF775
:103B80004BFA02463B69D31A022B01D90323A8E161
:103B90002B4B1B6803F00203002BF0D0284B1B6853
:103BA00023F0F8027B681B69DB00254913430B6097
:103BB00015E0244B00221A60FEF72EFA386108E067
:103BC000FEF72AFA02463B69D31A022B01D90323D6
:103BD00087E11B4B1B6803F00203002BF0D17B68CD
:103BE0001B6803F00803002B36D07B685B69002B51
:103BF00016D0154B01221A60FEF70EFA386108E064
:103C0000FEF70AFA02463B69D31A022B01D90323B5
:103C100067E10B4B5B6F03F00203002BF0D01BE05E
:103C2000094B00221A60FEF7F7F938610EE0FEF743
:103C3000F3F902463B69D31A022B07D9032350E15B
:103C40000038024000004742800E4742884B5B6FBD
:103C500003F00203002BEAD17B681B6803F0040326
:103C6000002B00F097800023FB75814B1B6C03F049
:103C70008053002B0FD10023BB607D4B1B6C7C4A13
:103C800043F0805313647A4B1B6C03F08053BB608A
:103C9000BB680123FB75774B1B6803F48073002B13
:103CA00018D1744B1B68734A43F480731360FEF79A
:103CB000B3F9386108E0FEF7AFF902463B69D31A61
:103CC000022B01D903230CE16A4B1B6803F48073B8
:103CD000002BF0D07B689B68012B06D1644B1B6FD7
:103CE000634A43F0010313671CE07B689B68052B64
:103CF0000CD15F4B1B6F5E4A43F0040313675C4BB0
:103D00001B6F5B4A43F0010313670BE0584B1B6FBB
:103D1000574A23F001031367554B1B6F544A23F096
:103D2000040313677B689B68002B15D0FEF774F9BA
:103D300038610AE0FEF770F902463B69D31A41F296
:103D40008832934201D90323CBE0494B1B6F03F028
:103D50000203002BEED014E0FEF75EF938610AE0B2
:103D6000FEF75AF902463B69D31A41F28832934270
:103D700001D90323B5E03E4B1B6F03F00203002B78
:103D8000EED1FB7D012B05D1394B1B6C384A23F05A
:103D9000805313647B689B69002B00F0A180344B37
:103DA0009B6803F00C03082B5CD07B689B69022B9B
:103DB00041D1314B00221A60FEF72EF9386108E03C
:103DC000FEF72AF902463B69D31A022B01D90323D5
:103DD00087E0274B1B6803F00073002BF0D17B6852
:103DE000DA697B681B6A1A437B685B6A9B011A432A
:103DF0007B689B6A5B08013B1B041A437B68DB6A98
:103E00001B061B4913434B601B4B01221A60FEF734
:103E100003F9386108E0FEF7FFF802463B69D31A60
:103E2000022B01D903235CE0114B1B6803F00073E4
:103E3000002BF0D054E0104B00221A60FEF7ECF893
:103E4000386108E0FEF7E8F802463B69D31A022B16
:103E500001D9032345E0064B1B6803F00073002BD8
:103E6000F0D13DE07B689B69012B07D1012338E04D
:103E70000038024000700040600047421B4B5B6806
:103E8000FB607B689B69012B28D0FB6803F48002F0
:103E90007B68DB699A4221D1FB6803F03F027B68B3
:103EA0001B6A9A421AD1FA6847F6C07313407A68BF
:103EB000526A9201934211D1FB6803F440327B684D
:103EC0009B6A5B08013B1B049A4207D1FB6803F025
:103ED00070627B68DB6A1B069A4201D0012300E016
:103EE000002318461837BD4680BD00BF0038024089
:103EF00080B584B000AF786039607B68002B01D159
:103F00000123CCE0684B1B6803F007033A689A4230
:103F10000CD9654B3A68D2B21A70634B1B6803F038
:103F200007033A689A4201D00123B8E07B681B6816
:103F300003F00203002B20D07B681B6803F004030E
:103F4000002B05D0594B9B68584A43F4E0539360CB
:103F50007B681B6803F00803002B05D0534B9B685C
:103F6000524A43F460439360504B9B6823F0F00245
:103F70007B689B684D4913438B607B681B6803F02B
:103F80000103002B44D07B685B68012B07D1474BB2
:103F90001B6803F40033002B19D101237FE07B68F9
:103FA0005B68022B03D07B685B68032B07D13F4B18
:103FB0001B6803F00073002B09D101236FE03B4B1A
:103FC0001B6803F00203002B01D1012367E0374B8C
:103FD0009B6823F003027B685B68344913438B6062
:103FE000FEF71AF8F8600AE0FEF716F80246FB68DA
:103FF000D31A41F28832934201D903234FE02B4B6D
:104000009B6803F00C027B685B689B009A42EBD1D3
:10401000254B1B6803F007033A689A420CD2224BE7
:104020003A68D2B21A70204B1B6803F007033A6853
:104030009A4201D0012332E07B681B6803F004033D
:10404000002B08D0194B9B6823F4E0527B68DB6897
:10405000164913438B607B681B6803F00803002B31
:1040600009D0124B9B6823F460427B681B69DB001C
:104070000E4913438B6000F021F802460B4B9B68FE
:104080001B0903F00F030A49CB5C22FA03F3094A28
:104090001360094B1B681846FDF77AFF002318468A
:1040A0001037BD4680BD00BF003C024000380240D2
:1040B0001460000800000020040000202DE9B04F2B
:1040C00094B000AF00237B640023FB6400233B64B7
:1040D0000023BB64794B9B6803F00C03082B0DD0C5
:1040E000082B00F2E180002B02D0042B03D0DBE090
:1040F000734BBB64DBE0734BBB64D8E06F4B5B6816
:1041000003F03F037B646D4B5B6803F48003002B7B
:1041100063D06A4B5B689B090022BB63FA63BB6B8D
:10412000C3F308033B6300237B63D7E90C452246B6
:104130002B464FF000004FF00001590141EAD261D7
:10414000500102460B462146511A3961294663EB5C
:1041500001037B614FF000024FF00003D7E904AB8D
:1041600059468B01514643EA916351468A015146B3
:10417000B2EB0108594663EB01094FF000024FF022
:1041800000034FEAC90343EA58734FEAC802904656
:104190009946234618EB0303BB602B4649EB030308
:1041A000FB604FF000024FF00003D7E902452946BB
:1041B0004B02214643EAD15321464A021046194692
:1041C0007B6C0022BB62FA62D7E90A23FCF750F845
:1041D00002460B461346FB6458E0384B5B689B096C
:1041E000002218461146C0F308033B6200237B629D
:1041F000D7E9088942464B464FF000004FF00001D6
:10420000590141EAD261500102460B464146B2EBE8
:10421000010A494663EB010B4FF000024FF0000327
:104220004FEA8B1343EA9A634FEA8A12B2EB0A040D
:1042300063EB0B054FF000024FF00003EB0043EA85
:104240005473E20014461D464346E3183B604B4658
:1042500045EB03037B604FF000024FF00003D7E90A
:10426000004529468B02214643EA915321468A02A2
:10427000104619467B6C0022BB61FA61D7E9062320
:10428000FBF7F6FF02460B461346FB640B4B5B68DD
:104290001B0C03F0030301335B003B64FA6C3B6CC3
:1042A000B2FBF3F3BB6402E0054BBB6400BFBB6C25
:1042B00018465037BD46BDE8B08F00BF00380240F9
:1042C0000024F40000127A0080B400AF034B1B6896
:1042D0001846BD465DF8047B704700BF0000002013
:1042E00080B500AFFFF7F0FF0246054B9B689B0AC5
:1042F00003F007030349CB5C22FA03F3184680BDA1
:10430000003802402460000880B500AFFFF7DCFFF2
:104310000246054B9B685B0B03F007030349CB5C2C
:1043200022FA03F3184680BD0038024024600008DA
:1043300080B582B000AF78607B68002B01D101238B
:104340003FE07B6893F83D30DBB2002B06D17B6801
:10435000002283F83C207868FDF744FC7B68242227
:1043600083F83D207B681B68DA687B681B6822F451
:104370000052DA60786800F029F97B681B681A69D6
:104380007B681B6822F490421A617B681B685A693B
:104390007B681B6822F02A025A617B681B68DA6816
:1043A0007B681B6842F40052DA607B6800221A6462
:1043B0007B68202283F83D207B68202283F83E2002
:1043C000002318460837BD4680BD80B58AB002AFCD
:1043D000F860B9603B601346FB8000237B61FB689B
:1043E00093F83D30DBB2202B7CD1BB68002B02D090
:1043F000FB88002B01D1012375E0FB6893F83C306A
:10440000012B01D102236EE0FB68012283F83C20DE
:10441000FB6800221A64FB68212283F83D20FDF727
:10442000FBFD7861FB68FA889A84FB68FA88DA8475
:10443000FB689B68B3F5805F08D1FB681B69002BA4
:1044400004D10023FB61BB68BB6103E0BB68FB6177
:104450000023BB61FB68002283F83C202AE03B6814
:1044600000937B6900228021F86800F040F8034641
:10447000002B01D0032336E0FB69002B0BD1BB6975
:104480001B881A46FB681B68C2F308025A60BB69A6
:104490000233BB6107E0FB691A78FB681B685A604E
:1044A000FB690133FB61FB68DB8C9BB2013B9AB279
:1044B000FB68DA84FB68DB8C9BB2002BCFD13B68B6
:1044C00000937B6900224021F86800F010F8034651
:1044D000002B01D0032306E0FB68202283F83D2057
:1044E000002300E0022318462037BD4680BD80B57A
:1044F00090B000AFF860B9603B601346FB7150E0CC
:10450000BB6CB3F1FF3F4CD0BB6C002B07D0FDF769
:1045100083FD02463B68D31ABA6C9A4241D2FB68CB
:104520001B680C33BB62BB6A53E8003F7B627B6A4B
:1045300023F4D073FB63FB681B680C33FA6B7A635C
:104540003B63396B7A6B41E80023FB62FB6A002B0B
:10455000E5D1FB681B6814337B617B6953E8003F3E
:104560003B613B6923F00103BB63FB681B681433A9
:10457000BA6B3A62FB61F9693A6A41E80023BB61B0
:10458000BB69002BE5D1FB68202283F83D20FB6846
:10459000202283F83E20FB68002283F83C2003237E
:1045A0000FE0FB681B681A68BB681340BA689A4240
:1045B0000CBF01230023DBB21A46FB799A429FD03D
:1045C000002318464037BD4680BD00002DE9B04F9E
:1045D000C0B000AFC7F8F400D7F8F4301B681B690F
:1045E00023F44050D7F8F430D968D7F8F4301A687B
:1045F00040EA01031361D7F8F4309A68D7F8F43031
:104600001B691A43D7F8F4305B691A43D7F8F430C2
:10461000DB691343C7F8F830D7F8F4301B68DB6860
:1046200023F4164121F00C01D7F8F4301A68D7F8BA
:10463000F8300B43D360D7F8F4301B685B6923F480
:104640004070D7F8F4309969D7F8F4301A6840EA26
:1046500001035361D7F8F4301A688F4B9A4205D0A2
:10466000D7F8F4301A688D4B9A4204D1FFF74CFE0C
:10467000C7F8FC0003E0FFF733FEC7F8FC00D7F8EB
:10468000F430DB69B3F5004F40F00C81D7F8FC3013
:104690000022C7F8E830C7F8EC20D7E93A452246AF
:1046A0002B469118B9655B41FB65D7E91623214676
:1046B00012EB0108294643EB01094FF000024FF0CD
:1046C00000034FEAC90343EA58734FEAC802904611
:1046D0009946234618EB0303C7F8E0302B4649EB15
:1046E0000303C7F8E430D7F8F4305B680022C7F85A
:1046F000D830C7F8DC20D7E936120B46DB183B650B
:10470000134642EB03037B65D7E91423D7E938014D
:10471000FBF7AEFD02460B46614BA3FB02235B0990
:104720001C01D7F8FC300022C7F8D030C7F8D420DD
:10473000D7E9348942464B469118B9645B41FB6422
:10474000D7E91223414612EB010A494643EB010B1C
:104750004FF000024FF000034FEACB0343EA5A73D5
:104760004FEACA0292469B4643461AEB0303C7F838
:10477000C8304B464BEB0303C7F8CC30D7F8F430C6
:104780005B680022C7F8C030C7F8C420D7E93012F0
:104790000B46DB183B64134642EB03037B64D7E90B
:1047A0001023D7E93201FBF763FD02460B461146A1
:1047B0003B4BA3FB01235B09642202FB03F3CB1AEF
:1047C000DB0003F13202364BA3FB02235B095B00E3
:1047D00003F4F8731C44D7F8FC300022C7F8B83053
:1047E000C7F8BC20D7E92E8942464B469118B963D9
:1047F0005B41FB63D7E90E234146511839634946B3
:104800004B417B634FF000024FF00003D7E90CAB44
:104810005946CB00514643EA51735146CA001046EF
:104820001946034642469B18C7F8B0304B460A4625
:1048300042EB0303C7F8B430D7F8F4305B680022CA
:10484000C7F8A830C7F8AC20D7E92A120B46DB1806
:10485000BB62134642EB0303FB62D7E90A23D7E9A5
:104860002C01FBF705FD02460B460D4BA3FB021383
:104870005B09642101FB03F3D31ADB003233084ADE
:10488000A2FB03235B0903F00702D7F8F4301B688F
:1048900022449A6005E100BF00100140001401406D
:1048A0001F85EB51D7F8FC300022C7F8A030C7F8BD
:1048B000A420D7E9288942464B46911839625B41CA
:1048C0007B62D7E9082341465418494643EB01056A
:1048D0004FF000024FF00003EB0043EA5473E20094
:1048E00014461D464346E318C7F898304B4645EB3F
:1048F0000303C7F89C30D7F8F4305B680022C7F890
:104900009030C7F894204FF000024FF00003D7E931
:10491000244529468B00214643EA917321468A00AB
:10492000D7E92601FBF7A4FC02460B46604BA3FB2C
:1049300002235B091C01D7F8FC300022C7F888303D
:10494000C7F88C20D7E9228942464B469118B961B5
:104950005B41FB61D7E9062341465118396149465D
:104960004B417B614FF000024FF00003D7E904ABED
:104970005946CB00514643EA51735146CA0010468E
:104980001946034642469B18C7F880304B460A46F4
:1049900042EB0303C7F88430D7F8F4305B68002299
:1049A000BB67FA674FF000024FF00003D7E91E899A
:1049B00049468B00414643EA917341468A00D7E954
:1049C0002001FBF755FC02460B46394BA3FB0213B3
:1049D0005B09642101FB03F3D31A1B013233344A10
:1049E000A2FB03235B0903F0F0031C44D7F8FC305F
:1049F00000223B677A67D7E91C8942464B469118EB
:104A0000B9605B41FB60D7E9022341465118396028
:104A100049464B417B604FF000024FF00003D7E95D
:104A200000AB5946CB00514643EA51735146CA0088
:104A300010461946034642469B18BB664B460A463B
:104A400042EB0303FB66D7F8F4305B6800223B6659
:104A50007A664FF000024FF00003D7E91889494603
:104A60008B00414643EA917341468A00D7E91A0117
:104A7000FBF7FEFB02460B460D4BA3FB02135B0943
:104A8000642101FB03F3D31A1B013233084AA2FB52
:104A900003235B0903F00F02D7F8F4301B682244AC
:104AA0009A6000BF07F58077BD46BDE8B08F00BFB4
:104AB0001F85EB51014B1868704700BF0C000020A8
:104AC00070B50D4D0D4C641BA4100026A64209D1F3
:104AD0000B4D0C4C01F0B4F9641BA4100026A64247
:104AE00005D170BD55F8043B98470136EEE755F8FF
:104AF000043B98470136F2E77C6100087C610008BE
:104B00007C61000880610008024B0146186800F0D3
:104B100085B800BF0C0000200A44914200F1FF3329
:104B200000D1704710B511F8014B03F8014F9142C5
:104B3000F9D110BD02440346934200D1704703F8F7
:104B4000011BF9E737B5002944D051F8043C019026
:104B5000002BA1F10404B8BFE41800F02FFD1E4A99
:104B60000198136833B96360146003B0BDE8304046
:104B700000F02ABDA34208D9256861198B4201BF04
:104B800019685B6849192160EDE71A465B680BB14B
:104B9000A342FAD911685518A5420BD124682144C3
:104BA0005418A3421160E0D11C685B685360214433
:104BB0001160DAE702D90C230360D6E72568611992
:104BC0008B4204BF19685B68636004BF49192160A8
:104BD0005460CAE703B030BD8002002070B50E4EAD
:104BE0000C463168054611B900F09CF93060214649
:104BF000284600F097F9431C0AD0C41C24F0030493
:104C0000A04207D0211A284600F08CF9013001D1CA
:104C10004FF0FF34204670BD840200202DE9F041A2
:104C2000CD1C25F0030508350C2D38BF0C25002DB3
:104C3000074601DBA94205D90C233B60002630461C
:104C4000BDE8F0812E4E00F0B9FC33681C4634BB41
:104C500029463846FFF7C2FF431C04464DD134684D
:104C60002646002E40D123683146384604EB03081F
:104C700000F058F980453AD1216803356D1A25F0C6
:104C8000030508350C2D38BF0C2529463846FFF79B
:104C9000A5FF01302BD023682B4423600EE022684F
:104CA000521B1ED40B2A16D96119A342256018BFC6
:104CB0005960636808BF316062514B60384604F147
:104CC0000B0600F081FC26F00706231DF21AB6D071
:104CD0009B1BA350B3E76268A3420CBF32605A60CB
:104CE000ECE723466468B2E734467668B9E70C23FC
:104CF0003B60384600F068FCA1E72560DEE700BFB6
:104D0000800200200FB40A4B13B51C6824B1A369BC
:104D100013B9204600F028FB05AB049AA168019363
:104D2000204600F081FC02B0BDE8104004B070479E
:104D30000C000020094B13B51C68014634B1A3696F
:104D400023B90190204600F00FFB0199A26820468C
:104D500002B0BDE8104000F02BBF00BF0C000020E7
:104D600070B50E46054618B183690BB900F0FCFA20
:104D7000AB69AC6813B9284600F0F6FA2C4B9C429C
:104D800020D16C68636EDB0705D4A389980502D433
:104D9000A06D00F0ACFBA38919071DD52369DBB119
:104DA000013EA36816F8011F013BA36039BB002B2D
:104DB00038DA22460A21284600F0DEF8013011D008
:104DC0000A2511E01B4B9C4201D1AC68DAE71A4B73
:104DD0009C4208BFEC68D5E72146284600F01EF942
:104DE0000028DDD04FF0FF35636EDA0705D4A389C4
:104DF0009B0502D4A06D00F07BFB284670BD002B04
:104E000004DAA2699A4206DC0A2904D023685A1CF3
:104E100022601970C5E72246284600F0ADF801303F
:104E2000BFD1DFE723680A255A1C22601D70DBE72B
:104E30000061000820610008E0600008024B0146A4
:104E40001868FFF78DBF00BF0C00002038B5104B6D
:104E50001D68AB6B0446B3B91820FFF755FE024638
:104E6000A86320B90B4B0C48422100F045F90B49CF
:104E70000B4BC0E900130B4B83600B238381002194
:104E80000120C2E90401AB6B00221C615A6138BDEC
:104E90000C00002030600008476000080E33CDABE6
:104EA00034126DE6ECDE0500164B10B51C68A36BE2
:104EB000B3B91820FFF728FEA06328B90246124BA9
:104EC00012484E2100F018F9114A124BC0E9002394
:104ED000114B83600B23838101220023C0E904234B
:104EE000A46B0E4A206963690D49424301FB03220A
:104EF000A0FB0101431C42EB0100C4E9043020F097
:104F0000004010BD0C000020306000084760000821
:104F10000E33CDAB34126DE6ECDE05002DF45158A6
:104F20002D7F954C38B5064D0023044608462B606E
:104F3000FCF79AFF431C02D12B6803B1236038BDF4
:104F40008C0200201FB50B4B0022694604461868EE
:104F500000F0BAFA0028BEBF4FF0FF324FF0FF3327
:104F6000CDE90023DDE900010CB1C4E9000104B082
:104F700010BD00BF0C000020F8B50E4614460546D3
:104F800018B183690BB900F0EFF9214B9C422BD18A
:104F90006C68A369A360A3891A072FD523696BB333
:104FA00023692068C01A6369F6B28342374604DC7D
:104FB0002146284600F044F930BBA368013BA360BA
:104FC00023685A1C22601E7063690130834204D03A
:104FD000A389DB0706D50A2E04D12146284600F016
:104FE0002FF988B93846F8BD0A4B9C4201D1AC680C
:104FF000CFE7094B9C4208BFEC68CAE72146284628
:1050000000F00CF80028CBD04FF0FF37EAE700BFE4
:105010000061000820610008E0600008324B70B5B4
:105020001D6806460C4625B1AB6913B9284600F049
:105030009BF92E4B9C420FD16C68A389B4F90C20CC
:1050400019072CD4DD0611D40923336042F0400344
:10505000A3814FF0FF303EE0254B9C4201D1AC686C
:10506000EBE7244B9C4208BFEC68E6E7580712D5F3
:10507000616B41B104F14403994202D03046FFF71D
:1050800061FD00236363A38923F02403A38100232C
:10509000636023692360A38943F00803A381236924
:1050A0004BB9A38903F42073B3F5007F03D02146E5
:1050B000304600F043FAA089B4F90C2010F0010347
:1050C0000AD00023A36063695B42A361236943B9EB
:1050D00010F08000BAD170BD810758BF6369A3602A
:1050E000F4E70020F7E700BF0C0000200061000893
:1050F00020610008E06000081FB514461A46094BFD
:105100001B680546D8684CB1074B0091CDE90134C6
:1051100006492B4600F0A6F900F0E8FD044B1C46BA
:10512000F3E700BF0C000020A2600008AF60000899
:10513000DD6000088A892DE9F041054610070C461C
:1051400058D44B68002B05DC0B6C002B02DC0020D4
:10515000BDE8F081E66A002EF9D0002312F48052F7
:105160002F682B6032D0606DA3895A0705D563681C
:10517000C01A636B0BB1236CC01A00230246E66AA7
:10518000216A2846B047431CA38906D129681D29F6
:105190002CD82A4ACA40D60728D500226260D904F2
:1051A0002269226004D5421C01D12B6803B96065D5
:1051B000616B2F600029CAD004F14403994202D0E8
:1051C0002846FFF7BFFC00206063C1E7216A012386
:1051D0002846B047411CC7D12B68002BC4D01D2BDB
:1051E00001D0162B01D12F60B1E7A38943F0400312
:1051F000A381ADE70F69002FA9D093070E6808BF00
:105200004B690F6018BF0023A6EB07088B60B8F14D
:10521000000F9CDD216AA66A43463A462846B047FD
:10522000002806DCA38943F04003A3814FF0FF3040
:105230008EE70744A8EB0008E9E700BF0100402023
:1052400038B50B6905460C4613B90025284638BD0C
:1052500018B183690BB900F087F8144B9C421BD13D
:105260006C68B4F90C30002BEFD0626ED00704D418
:10527000990502D4A06D00F03AF928462146FFF7BF
:1052800059FF636EDA070546E0D4A3899B05DDD498
:10529000A06D00F02DF9D9E7054B9C4201D1AC6817
:1052A000DFE7044B9C4208BFEC68DAE700610008C6
:1052B00020610008E0600008002310B50446C0E942
:1052C0000033C0E90433836081814366C281836116
:1052D000194608225C30FFF72DFC054B6362054B35
:1052E000A362054BE362054B2462236310BD00BF3C
:1052F000415C0008635C00089B5C0008BF5C000820
:10530000014900F0C1B800BF4152000870B56822E1
:105310004D1E55430E4605F17401FFF77FFC044610
:1053200040B10021C0E900160C30A06005F1680210
:10533000FFF700FC204670BD014800F0D8B800BF60
:1053400089020020014800F0D3B800BF8902002084
:10535000014800F0CCB800BF8A020020014800F0EC
:10536000C7B800BF8A02002010B50446FFF7F0FF5F
:10537000A3691BB1BDE81040FFF7F0BFC4E91233C9
:105380002365134B134A1B68A262A34204BF012387
:10539000A361204600F020F86060204600F01CF871
:1053A000A060204600F018F80022E0600421606848
:1053B000FFF782FFA06801220921FFF77DFFE06867
:1053C00002221221FFF778FF0123A361D2E700BF79
:1053D0002C60000801530008F8B50746FFF7ACFF42
:1053E0001E4B1E68B36913B93046FFF7BDFF483640
:1053F000D6E90134013B03D533680BB33668F7E7D0
:10540000B4F90C50D5B9164BE36004F15800656649
:1054100000F06CF8FFF796FFC4E90155C4E90455A4
:105420002560A5610822294604F15C00FFF782FB94
:10543000C4E90D55C4E912552046F8BD6834D9E7D2
:1054400004213846FFF762FF044630600028D5D1BA
:10545000FFF778FF0C233B60EEE700BF2C600008ED
:105460000100FFFF0EB403B5014603AB054853F836
:10547000042B0068019300F0D7F802B05DF804EB4C
:1054800003B070470C0000202DE9F843064688461B
:1054900000F148040027D4E90195B9F1010905D5C7
:1054A0002468002CF7D13846BDE8F883AB89012B7E
:1054B00007D9B5F90E30013303D029463046C0472D
:1054C00007436835E9E7000038B5074D0023044677
:1054D000084611462B6000F0ABFC431C02D12B6840
:1054E00003B1236038BD00BF8C02002070477047B5
:1054F000704770B50E46B1F90E10002996B01446EB
:105500001D4608DAB6F90C3000222A601A0610D4BB
:105510004FF480630EE06A4600F000FC0028F1DBE7
:10552000019A02F47042A2F500535A425A412A608D
:10553000EEE740230020236016B070BD8B8973B561
:105540009D0706460C4607D504F1470323602361F7
:105550000123636102B070BD01AB6A46FFF7C9FF6A
:10556000009905463046FFF759FB48B9B4F90C30AD
:105570009A05EFD423F0030343F00203A381E3E78A
:105580000D4BB362A389206043F08003A381009B8D
:105590006361019B20615BB1B4F90E10304600F0ED
:1055A000CFFB28B1A38923F0030343F00103A381B8
:1055B000A0890543A581CDE7015300080148FFF705
:1055C00096BF00BF880200200148FFF791BF00BFCF
:1055D000880200209368013B002B10B4936008DA26
:1055E0009469A34201DB0A2903D15DF8044BFFF75C
:1055F000C3BC1368581C1060197008465DF8044B52
:105600007047F8B506460F461446D518AC4201D18E
:10561000002007E014F8011B3A463046FFF7DAFF96
:10562000431CF3D1F8BD00002DE9F04F0D469DB0AD
:1056300014469846064618B183690BB9FFF794FEE5
:10564000894B9D421BD175686B6ED90705D4AB8918
:105650009A0502D4A86DFFF74AFFAB891B0701D555
:105660002B69EBB929463046FFF7D8FCC0B16B6E09
:10567000DC070ED54FF0FF301DB0BDE8F08F7B4B3F
:105680009D4201D1B568DFE7794B9D4208BFF568BF
:10569000DAE7AB899805EDD4A86DFFF729FFE9E7B4
:1056A0000023099320238DF82930CDF80C80302376
:1056B000DFF8C0818DF82A304FF0010923469A4661
:1056C00013F8012B0AB1252AF9D1BAEB040B0BD040
:1056D0005B46224629463046FFF793FF013000F033
:1056E000AA80099A5A4409929AF80030002B00F0D7
:1056F000A28000234FF0FF32CDE905230AF1010A11
:10570000049307938DF853301A935446052214F8E6
:10571000011B5848FAF75CFD049AD8B9D10644BF7A
:1057200020238DF85330130744BF2B238DF85330BB
:105730009AF800302A2B15D0079A544600204FF0D3
:105740000A0C214611F8013B303B092B4ED9B0B170
:10575000079214E0A0EB080309FA03F31343049340
:10576000A246D2E7039B191D1B680391002BBBBF08
:105770005B4242F0020207930793B8BF049223787A
:105780002E2B0CD163782A2B35D1039B1A1D1B6855
:105790000392002BB8BF4FF0FF3302340593DFF8BC
:1057A000E4A0217803225046FAF712FD40B14023CD
:1057B000A0EB0A0003FA00F0049B034301340493B6
:1057C00014F8011B2C488DF828100622FAF700FD6A
:1057D00000283FD0294B1BBB039B073323F0070353
:1057E00008330393099B3B44099367E70CFB0232A0
:1057F0000C460120A5E700230134059319464FF01C
:105800000A0C204610F8012B303A092A03D9002B44
:10581000C5D00591C3E70CFB012104460123F0E745
:1058200003AB00932A46164B04A93046AFF3008021
:105830000746781CD6D16B6ED90705D4AB899A057B
:1058400002D4A86DFFF754FEAB895B063FF512AF9B
:10585000099811E703AB00932A46094B04A9304687
:1058600000F080F8E4E700BF006100082061000854
:10587000E0600008406100084A6100080000000084
:1058800003560008466100082DE9F0471646994680
:105890008A680B69DDF820809342B8BF13463360F5
:1058A00091F8432007460C460AB101333360236860
:1058B000990642BF336802333360256815F0060548
:1058C00006D104F1190AE36832689B1AAB4226DC60
:1058D00094F84320131E226818BF012392062BD48C
:1058E00004F1430249463846C04701301ED02368C0
:1058F000E568326803F00603042B08BFAD1AA368FD
:1059000022690CBF25EAE57500259342C4BF9B1AA6
:10591000ED1800261A34B5421AD1002008E0012300
:10592000524649463846C047013003D14FF0FF3058
:10593000BDE8F0870135C6E7E1185A1C302081F830
:105940004300224494F8451082F843100233C7E71D
:105950000123224649463846C0470130E6D0013689
:10596000D9E700002DE9FF470F7E0C9D782F914667
:1059700080460C469A4601F1430207D8622F0AD8A6
:10598000002F00F0D880582F00F0A38004F14205CA
:1059900084F842703AE0A7F16303152BF6D801A111
:1059A00051F823F0FD590008115A00088D590008DC
:1059B0008D5900088D5900088D590008115A0008AA
:1059C0008D5900088D5900088D5900088D5900081F
:1059D0001D5B0008415A0008FF5A00088D59000855
:1059E0008D5900083F5B00088D590008415A000896
:1059F0008D5900088D590008075B00082B681A1D97
:105A00001B682A6004F1420584F842300123A3E0B8
:105A100020682968060601F104030AD50E682B6088
:105A2000002E03DA2D23764284F843305E480A23A1
:105A300019E00E682B6010F0400F18BF36B2EFE788
:105A40002B682068191D2960010601D51E6802E037
:105A50004606FBD51E8854486F2F0CBF08230A2327
:105A6000002184F843106568A560002DA2BF21685D
:105A700021F0040121600EB9002D4DD01546B6FB72
:105A8000F3F103FB1167C75D05F8017D3746BB42A3
:105A90000E46F4D9082B0BD12368DE0708D52369FD
:105AA00061689942DEBF302305F8013C05F1FF35FE
:105AB000521B2261CDF800A04B4603AA2146404666
:105AC000FFF7E2FE01304CD14FF0FF3004B0BDE8EB
:105AD000F087354881F845702968236851F8046BD0
